:020000040000fa
:080000000002040000000000f2
:020000040000fa
:0400080046080000a6
:020000040000fa
:04000c0046080000a2
:020000040000fa
:04001000460800009e
:020000040000fa
:04001400460800009a
:020000040000fa
:040018004608000096
:020000040000fa
:04001c004608000092
:020000040000fa
:04002000460800008e
:020000040000fa
:04002400460800008a
:020000040000fa
:040028004608000086
:020000040000fa
:04002c004608000082
:020000040000fa
:04003000460800007e
:020000040000fa
:04003400460800007a
:020000040000fa
:040038004608000076
:020000040000fa
:04003c004608000072
:020000040000fa
:04004000460800006e
:020000040000fa
:04004400da020000dc
:020000040000fa
:040048004608000066
:020000040000fa
:04004c004608000062
:020000040000fa
:04005000460800005e
:020000040000fa
:04005400460800005a
:020000040000fa
:040058004608000056
:020000040000fa
:04005c007e0700001b
:020000040000fa
:04006000460800004e
:020000040000fa
:04006400460800004a
:020000040000fa
:040068004608000046
:020000040000fa
:04006c004608000042
:020000040000fa
:04007000460800003e
:020000040000fa
:040074008a030000fb
:020000040000fa
:040078004608000036
:020000040000fa
:04007c004608000032
:020000040000fa
:04008000460800002e
:020000040000fa
:04008400460800002a
:020000040000fa
:040088004608000026
:020000040000fa
:04008c004608000022
:020000040000fa
:04009000460800001e
:020000040000fa
:04009400c80200009e
:020000040000fa
:040098004608000016
:020000040000fa
:04009c004608000012
:020000040000fa
:0400a00062040000f6
:020000040000fa
:0400a400e40600006e
:020000040000fa
:0400a8004608000006
:020000040000fa
:0400ac004608000002
:020000040000fa
:0400b00046080000fe
:020000040000fa
:0400b40046080000fa
:020000040000fa
:0400b80046080000f6
:020000040000fa
:0400bc0046080000f2
:020000040000fa
:0400c00046080000ee
:020000040000fa
:0400c40046080000ea
:020000040000fa
:0400c80046080000e6
:020000040000fa
:0400cc0046080000e2
:020000040000fa
:0400d00046080000de
:020000040000fa
:0400d40046080000da
:020000040000fa
:0400d80046080000d6
:020000040000fa
:0400dc0046080000d2
:020000040000fa
:0400e00046080000ce
:020000040000fa
:0400e40046080000ca
:020000040000fa
:0400e80046080000c6
:020000040000fa
:0400ec0046080000c2
:020000040000fa
:0400f00046080000be
:020000040000fa
:0400f40046080000ba
:020000040000fa
:0400f80046080000b6
:020000040000fa
:0400fc0046080000b2
:020000040000fa
:0401000046080000ad
:020000040000fa
:0401040046080000a9
:020000040000fa
:0401080046080000a5
:020000040000fa
:04010c0046080000a1
:020000040000fa
:04011000460800009d
:020000040000fa
:040114004608000099
:020000040000fa
:040118004608000095
:020000040000fa
:04011c004608000091
:020000040000fa
:04012000460800008d
:020000040000fa
:040124004608000089
:020000040000fa
:040128004608000085
:020000040000fa
:04012c004608000081
:020000040000fa
:04013000460800007d
:020000040000fa
:040134004608000079
:020000040000fa
:040138004608000075
:020000040000fa
:04013c004608000071
:020000040000fa
:04014000460800006d
:020000040000fa
:040144004608000069
:020000040000fa
:0402080046080000a4
:020000040000fa
:04020c0046080000a0
:020000040000fa
:04021000460800009c
:020000040000fa
:040214004608000098
:020000040000fa
:040218004608000094
:020000040000fa
:04021c004608000090
:020000040000fa
:04022000460800008c
:020000040000fa
:040224004608000088
:020000040000fa
:040228004608000084
:020000040000fa
:04022c004608000080
:020000040000fa
:04023000460800007c
:020000040000fa
:040234004608000078
:020000040000fa
:040238004608000074
:020000040000fa
:04023c004608000070
:020000040000fa
:04024000460800006c
:020000040000fa
:040244004608000068
:020000040000fa
:040248004608000064
:020000040000fa
:04024c004608000060
:020000040000fa
:04025000460800005c
:020000040000fa
:040254004608000058
:020000040000fa
:040258004608000054
:020000040000fa
:04025c004608000050
:020000040000fa
:04026000460800004c
:020000040000fa
:040264004608000048
:020000040000fa
:040268004608000044
:020000040000fa
:04026c004608000040
:020000040000fa
:04027000460800003c
:020000040000fa
:040274004608000038
:020000040000fa
:040278004608000034
:020000040000fa
:04027c004608000030
:020000040000fa
:04028000460800002c
:020000040000fa
:040284004608000028
:020000040000fa
:040288004608000024
:020000040000fa
:04028c004608000020
:020000040000fa
:04029000460800001c
:020000040000fa
:040294004608000018
:020000040000fa
:040298004608000014
:020000040000fa
:04029c004608000010
:020000040000fa
:0402a000460800000c
:020000040000fa
:0402a4004608000008
:020000040000fa
:0402a8004608000004
:020000040000fa
:0402ac004608000000
:020000040000fa
:0402b00046080000fc
:020000040000fa
:0402b40046080000f8
:020000040000fa
:0402b80046080000f4
:020000040000fa
:0402bc0046080000f0
:020000040000fa
:0402c00046080000ec
:020000040000fa
:0402c40046080000e8
:020000040000fa
:0402c80046080000e4
:020000040000fa
:0402cc0046080000e0
:020000040000fa
:0402d00046080000dc
:020000040000fa
:0402d40046080000d8
:020000040000fa
:0402d80046080000d4
:020000040000fa
:0402dc0046080000d0
:020000040000fa
:0402e00046080000cc
:020000040000fa
:0402e40046080000c8
:020000040000fa
:0402e80046080000c4
:020000040000fa
:0402ec0046080000c0
:020000040000fa
:0402f00046080000bc
:020000040000fa
:0402f40046080000b8
:020000040000fa
:0402f80046080000b4
:020000040000fa
:0402fc0046080000b0
:020000040000fa
:0403000046080000ab
:020000040000fa
:0403040046080000a7
:020000040000fa
:0403080046080000a3
:020000040000fa
:04030c00460800009f
:020000040000fa
:04031000460800009b
:020000040000fa
:040314004608000097
:020000040000fa
:040318004608000093
:020000040000fa
:04031c00460800008f
:020000040000fa
:04032000460800008b
:020000040000fa
:040324004608000087
:020000040000fa
:040328004608000083
:020000040000fa
:04032c00460800007f
:020000040000fa
:04033000460800007b
:020000040000fa
:040334004608000077
:020000040000fa
:040338004608000073
:020000040000fa
:04033c00460800006f
:020000040000fa
:04034000460800006b
:020000040000fa
:040344004608000067
:020000040000fa
:100400004f9620000e7f24000e018800000000009f
:10041000000020000000e000020032000001200087
:1004200020028800140007001a0307000000e00003
:1004300003003a00a06c21000100200002003700f8
:100440000000200001002000810f70000100320038
:1004500014000700000020000000e000020032004d
:100460000000020000000000de09020000000000a1
:100470000040da000000fe004440a900a000200077
:100480000000e0000300320000002000a00188000e
:100490004440a800000006008a1f78008b1f7800e7
:1004a0000000060091018800800478000000eb0045
:1004b0001a003700e284440032a0b4009905ba0063
:1004c000e284440032a0b4009906ba00e2844400f9
:1004d00032a0b4000006eb00476fde00fd07b2005b
:1004e000636ce10003003a00ebff07000000eb0043
:1004f0000a003700606ce10004003a00005deb0088
:100500008b05e900fdff3e00040037006168e10053
:10051000010032000086eb000b00070019c7ba008b
:100520001905ba000e04e00003003a000a00e000da
:10053000e0ff3a0000000600fe07b2009e018800be
:100540008a047800f5ff3700395dba008b05e900b1
:100550000c003200295dba008b05e900080032006a
:100560000c00e00003003a00e284440032a0b40032
:10057000f5ff370019ddba008b05e900faff3a00f4
:100580008904e800e184440032a0b40000000600c1
:10059000801f78000000fa00904180006400400055
:1005a000904188008760a9000080fa004f00780021
:1005b00000400600809fbe000000fa0070408000ee
:1005c000e20f500025003200e20f500005003e000f
:1005d0000000e0000a003200e10f5000130032007a
:1005e00048003700e40f500034003200e40f5000a0
:1005f00026003900e50f50003c0032004100370072
:10060000d602a8003041800041422f0000805000f7
:10061000804188000621ef0030418000600888009a
:10062000100020007040880036003700d602a90074
:10063000d622a8004041800041422f000080500097
:10064000804188000621ef0040418000600888005a
:1006500020002000704088002a003700d622a90020
:10066000d642a8005041800041422f000080500037
:10067000804188000621ef0050418000600888001a
:1006800030002000704088001e003700d642a900cc
:10069000d662a8006041800041422f0000805000d7
:1006a000804188000621ef006041800060088800da
:1006b000400020007040880012003700d662a90078
:1006c000d702a8007041800041422f0000805000f6
:1006d000804188000621ef0070418000600888009a
:1006e000500020007040880006003700d702a900a3
:1006f0000621ef0080418000600888000e28ef008e
:100700000000000084e0a9000080fa004f00be0055
:1007100000400600809fbe000000fa0040168000e6
:10072000610060000000e0000c003a00807c2000c6
:10073000304188005097210040418800d08021003e
:1007400050418800a084200060418800a06a2100f8
:10075000704188001000200000408800a116800031
:1007600000042000008060000000e0000a003a0061
:10077000f00880000080ea004f00de0000407800b2
:100780000080fb004f00dd00f108800001f0a100b7
:1007900001007000f0088800a11680000008200009
:1007a000008060000000e00018003a001fe1a9008e
:1007b0001421ef003828ef00c0418000b0418800cc
:1007c000b0418000a0418800a04180009041880095
:1007d0007085200001c3b3000148780080852000a7
:1007e00001c3b30001487800a085200001c3b30015
:1007f00001487800b085200001c3b30001487800ab
:10080000d085200001c3b300014878001116800094
:1008100000082000008060000000e00010003a00a6
:1008200020418000e90f500002003a002428ef0028
:1008300003003700204180000000e80020418800cc
:10084000e0418000e90f500002003a003c28ef0030
:1008500003003700e04180000000e800e04188002c
:10086000a116800000002200008060000000e0006f
:1008700010003a00a040800000f0a7000000ea004d
:100880000000e9004f00de00a0408800a04080008a
:1008900000407800614060000080fb006100600063
:1008a0004600dd00211680000160a10001007000fb
:1008b000201688008660a9000080fa004f00be0064
:1008c000004006003600f800809fbe00829fbe00f8
:1008d000849fbe00869fbe00881f78000200fa0039
:1008e000b1118000010f7800000720009e00780001
:1008f000808f500004003200000520009e00780028
:10090000808f500001003a001fe1a900300620004e
:100910009e007800808f50000400320030042000d8
:100920009e007800808f500001003a001fe1a8006f
:10093000900420009e007800808f50000400320058
:10094000900620009e007800808f500018003a002a
:100950001fe1a9001421ef003828ef00c0418000fa
:10096000b0418800b0418000a0418800a0418000d3
:10097000904188007085200001c3b30001487800d1
:100980008085200001c3b30001487800a0852000c5
:1009900001c3b30001487800b085200001c3b30053
:1009a00001487800d085200001c3b30001487800d9
:1009b000a04080000000e00096003a0010052000f2
:1009c0009e007800808f5000040032001007200045
:1009d0009e007800808f500011003a003041800066
:1009e0008000eb00bf01070018c0b300f23f2c00ed
:1009f000c35c2400b70107000000e00001003400e0
:100a00000044eb000804e0000500320030418000a3
:100a10006a0040003041880010002000004088003b
:100a2000100420009e007800808f500004003200e7
:100a3000100620009e007800808f500011003a00c0
:100a4000304180008000eb00a601070018c0b30011
:100a500002002900434c2400a00107000000e00030
:100a600001003d000044eb000804e00005003200f6
:100a7000304180006a0050003041880010002000a2
:100a800000408800700520009e007800808f500094
:100a900004003200700720009e007800808f500014
:100aa00011003a00404180008000eb008d010700fa
:100ab00018c0b300f23f2c00c35c2400850107007e
:100ac0000000e000010034000044eb000804e000f6
:100ad00005003200404180006a004000404188002b
:100ae0001000200000408800300520009e007800a3
:100af000808f500004003200300720009e007800f4
:100b0000808f500011003a00404180008000eb00cf
:100b10007401070018c0b30002002900434c2400f0
:100b20006e0107000000e00001003d000044eb0002
:100b30000804e00005003200404180006a005000d7
:100b40004041880010002000004088005004200030
:100b50009e007800808f5000040032005006200074
:100b60009e007800808f500011003a0050418000b4
:100b70008000eb005b01070018c0b300f23f2c00bf
:100b8000c35c2400530107000000e00001003400b2
:100b90000044eb000804e0000500320050418000f2
:100ba0006a0040005041880010002000004088008a
:100bb000400420009e007800808f50000400320026
:100bc000400620009e007800808f500011003a00ff
:100bd000504180008000eb004201070018c0b300c4
:100be00002002900434c24003c0107000000e00003
:100bf00001003d000044eb000804e0000500320065
:100c0000504180006a0050005041880010002000d0
:100c100000408800200520009e007800808f500052
:100c200004003200200720009e007800808f5000d2
:100c300011003a00604180008000eb0029010700ac
:100c400018c0b300f23f2c00c35c24002101070050
:100c50000000e000010034000044eb000804e00064
:100c600005003200604180006a0040006041880059
:100c70001000200000408800600420009e007800e2
:100c8000808f500004003200600620009e00780033
:100c9000808f500011003a00604180008000eb001e
:100ca0001001070018c0b30002002900434c2400c3
:100cb0000a0107000000e00001003d000044eb00d5
:100cc0000804e00005003200604180006a00500026
:100cd000604188001000200000408800400520008e
:100ce0009e007800808f50000400320040072000f2
:100cf0009e007800808f500011003a007041800003
:100d00008000eb00f700070018c0b300f23f2c0092
:100d1000c35c2400ef0007000000e0000100340085
:100d20000044eb000804e000050032007041800040
:100d30006a004000704188001000200000408800d8
:100d4000700420009e007800808f50000400320064
:100d5000700620009e007800808f500011003a003d
:100d6000704180008000eb00de00070018c0b30077
:100d700002002900434c2400d80007000000e000d6
:100d800001003d000044eb000804e00005003200d3
:100d9000704180006a0050007041880010002000ff
:100da0000040880087c0a9000080fa004f04780046
:100db0004f03be004f02be004f01be004f00be00f9
:100dc0003600f90000400600809fbe00821f7800b8
:100dd0000000fa0030408000e10f500014003200a3
:100de000e10f500003003900e20f50001f003200f5
:100df0003d00370010408000419d28006140780090
:100e00000000fb00a0118800104080000000e800f6
:100e10001040880010408000e40f50002d003a0080
:100e20000228ef0010002000304088002e0037001c
:100e300010408000919d2800614078000000fb0078
:100e4000a0118800104080000000e80010408800d9
:100e500010408000e30f500020003a0020002000e6
:100e6000304088000228ef001f003700204080003b
:100e7000124080007200b9000000780002004000bb
:100e8000e1832000614078000080fb00a011880011
:100e9000104080000000e8001040880010408000f2
:100ea000f20f500004003a000228ef0020408000ba
:100eb0000000e8002040880020408000e90f50003a
:100ec0000800360010002000304088000428ef00a1
:100ed000050037000000000003003700000000009c
:100ee000010037000000000087e0a9000080fa0040
:100ef0004f0178004f00be0000400600809fbe00fa
:100f0000821f78000000fa0000188000d04188009d
:100f100080408000e80f5000570032009040800071
:100f2000e20f500028003200e20f500005003e00a2
:100f30000000e00008003200e10f50001400320011
:100f40004d003700e30f50002d003200e40f500039
:100f5000390032004800370080408000d1418000d5
:100f600000014000209020000000410001087800ae
:100f70004119800000fe2f00008060000020a000ca
:100f80004019880010002000904088003a00370087
:100f900080408000d141800000014000208f20006f
:100fa00000004100010878004119800000fe2f0078
:100fb000008060000030a000401988002000200060
:100fc000904088002c00370080408000d141800094
:100fd000000140002091200000004100010878003d
:100fe0004119800000fe2f00008060009000b300d7
:100ff0004019880030002000904088001e00370013
:1010000080408000d14180000001400020922000fb
:1010100000004100010878004119800000fe2f0007
:1010200000806000a000b30040198800400020004c
:10103000904088001000370080408000d14180003f
:1010400000014000209320000000410001087800ca
:101050004119800000fe2f00008060005000b300a6
:10106000401988001228ef00804080000000e8004e
:10107000804088000000000085a0a9000080fa00e0
:101080004f0178004f00be00004006000040da002b
:101090000000fe0000000500839f68000100e000e2
:1010a00002003d0060001000e08018000300e00036
:1010b00002003d0060011100e08119001a000700e4
:1010c0004f00e00002003b0060001000e0801800cc
:1010d000000006001400200026003700f4ff2f0057
:1010e000240037006011b8003d003700811f7800f0
:1010f0000100e00002003d0060001000e0801800e8
:101100000300e00002003d0060011100e0811900d1
:10111000150007004f00e00002003b0060001000d7
:10112000e0801800000006006022b80006022000df
:101130000000d0008180d2000482d2008582d200db
:101140000000a0000202520083825a000300310016
:101150000202420083824a000000a1000603e90067
:10116000f3ff3a0000000600efff07000400be0096
:1011700000000600889fbe008a9fbe00841f780082
:101180006c0007004f00780011003300f0ff2f00c3
:10119000838f6c0006003b00040565000a00a70071
:1011a0000800370009f0a6001000200008003700f2
:1011b000820f5400838f5c00030039001000200070
:1011c00001003e000000200009f0a7000000ea0036
:1011d0004f05be004f04be000000e0000000060006
:1011e000889fbe008a9fbe000082700004027100ca
:1011f00004827100260032000004be000200be001e
:101200006011b8006b092000950220000182cf0018
:101210000a0039000541b1000082cf000700390003
:101220000541b1000982cf00040039000541b10039
:101230000882cf00010039000541b100054252008b
:10124000120032000a003b008281710061016400db
:101250008100d1000080d3008984d3000884d300aa
:101260008b05e8000442e800f7ff3a00070037006a
:101270000804440089844c00000048008180480034
:101280008b05e9000442e900f9ff3a00030007007a
:101290004f05be004f04be00000006008100200084
:1012a000618055000b003d000b00200061fe2f0007
:1012b0000100e1001d0034008281710061016400c1
:1012c0008904d1000884d3000000e800faff3a0046
:1012d00071002000610064000300700002006000e3
:1012e0000900320061044400e0844c000988a50034
:1012f000050032008b05e8006808e10002003a00b2
:101300008904d1000884d300f20f20000258e100c4
:1013100005003d00c75ddd00f907b200898075005a
:1013200008007800000006000bf827008b0078000a
:10133000000005000004be00060007000003be0018
:101340000405be000200be0002000700844f7500c5
:1013500000000600c70ade00f107b200f50fb20078
:1013600008003200e1cf4200020032000170a0000c
:1013700024000500810f7000010032000408050000
:1013800044000500810f700002003a0014000500bf
:101390008502e9000000400081c04800fcff3b00de
:0813a0000170a000240005000b
:020000040000fa
:1013a8001b5b0000324a0000001b00005b48000085
:0413b8000000000031
:020000040000fa
:1013bc000000fa00881f7800150707003d0707009a
:1013cc00e0030700e4030700d2c2a800d2e2a800a1
:1013dc00d3a2a800c0e2a800c0c2a900d202a900f2
:1013ec00d222a900d242a900d262a900d302a9003c
:1013fc00c602a8000080eb00501988000b060700fd
:10140c005207070046060700e083200001c1b30025
:10141c003106070049060700e083200072004000f7
:10142c0001c1b3002c06070000000000a1168000cb
:10143c0000042000008060000000e000fbff3a0088
:10144c00fa010700720707008f030700c7030700a4
:10145c00cb030700a403070020ceb3004d07070001
:10146c00a8030700390707003422ef00af06070076
:10147c0093030700c9030700004080000000e00050
:10148c00650032000028ef003041800080007800b9
:10149c00a0952000e5040700a0952000904078005e
:1014ac00708c200001487800b095200090407800a6
:1014bc00808c200001487800c09520009040780076
:1014cc00908c200001487800d09520009040780046
:1014dc00a08c2000014878004041800080007800fa
:1014ec00a0952000d1040700a09520009040780022
:1014fc00108d200001487800b095200090407800b5
:10150c00208d200001487800c09520009040780084
:10151c00308d200001487800d09520009040780054
:10152c00408d2000014878005041800080007800f8
:10153c00a0952000bd040700a095200090407800e5
:10154c00908d200001487800b095200090407800e4
:10155c00a08d200001487800c095200090407800b4
:10156c00b08d200001487800d09520009040780084
:10157c00c08d200001487800604180008000780018
:10158c00a0952000a9040700a095200090407800a9
:10159c00308e200001487800b095200090407800f3
:1015ac00408e200001487800c095200090407800c3
:1015bc00508e200001487800d09520009040780093
:1015cc00608e200001487800704180008000780017
:1015dc00a095200095040700a0952000904078006d
:1015ec00b08e200001487800b09520009040780023
:1015fc00c08e200001487800c095200090407800f3
:10160c00d08e200001487800d095200090407800c2
:10161c00e08e20000148780080408000e80f5000e8
:10162c0041013a008040800080007800208f20002b
:10163c0039050700b0408800b04080008000780079
:10164c00a095200079040700a09520009040780018
:10165c000088200001487800b09520009040780068
:10166c001088200001487800c09520009040780038
:10167c002088200001487800d09520009040780008
:10168c00308820000148780080408000800078007d
:10169c002090200020050700c0408800c04080003a
:1016ac0080007800a095200060040700a095200021
:1016bc00904078009086200001487800b09520007a
:1016cc0090407800a086200001487800c09520004a
:1016dc0090407800b086200001487800d09520001a
:1016ec0090407800c086200001487800804080003f
:1016fc00800078002091200007050700d04088006a
:10170c00d040800080007800a0952000470407009e
:10171c00a0408000e10f50003e003a0030418000b4
:10172c008000eb006cfe070018c0b30002002d0017
:10173c00534c240066fe07000000e00001003d0051
:10174c000044eb000804e00013003200d14080009c
:10175c00700c2000808f500006003e00304180004d
:10176c006a005000304188001000200000408800c2
:10177c0009003700d1408000f0182000808f500005
:10178c0005003e003041800065005000304188006b
:10179c001000200000408800304180008000eb00e9
:1017ac004dfe070018c0b300f23f2700c35c2400b5
:1017bc0045fe07000000e000010034000044eb008f
:1017cc000804e00013003200d140800000322000f9
:1017dc00808f500006003600304180006a004000c7
:1017ec0030418800100020000040880009003700bc
:1017fc00d140800080252000808f500005003600ed
:10180c00304180006500400030418800100020000d
:10181c0000408800a095200090407800308a20007d
:10182c0001487800b095200090407800408a200054
:10183c0001487800c095200090407800508a200024
:10184c0001487800d095200090407800608a2000f4
:10185c0001487800804080008000780020922000b1
:10186c00ad040700e0408800e04080008000780074
:10187c00a0952000ed030700a0408000e10f500070
:10188c003e003a00404180008000eb0012fe070051
:10189c0018c0b30002002d00534c24000cfe0700ae
:1018ac000000e00001003d000044eb000804e000f3
:1018bc0013003200e1408000700c2000808f50003b
:1018cc0006003e00404180006a0050004041880004
:1018dc00100020000040880009003700e140800023
:1018ec00f0182000808f500005003e004041800021
:1018fc006500500040418800100020000040880026
:10190c00404180008000eb00f3fd070018c0b300dd
:10191c00f23f2700c35c2400ebfd07000000e00051
:10192c00010034000044eb000804e0001300320016
:10193c00e140800000322000808f5000060036000d
:10194c00404180006a0040004041880010002000a7
:10195c000040880009003700e1408000802520000d
:10196c00808f50000500360040418000650040002b
:10197c00404188001000200000408800a095200005
:10198c0090407800d08a200001487800b095200063
:10199c0090407800e08a200001487800c095200033
:1019ac0090407800f08a200001487800d095200003
:1019bc0090407800008b2000014878008040800027
:1019cc00800078002093200053040700f04088002a
:1019dc00f040800080007800a09520009303070061
:1019ec00a0408000e10f50003e003a0050418000c2
:1019fc008000eb00b8fd070018c0b30002002d00fa
:101a0c00534c2400b2fd07000000e00001003d0033
:101a1c000044eb000804e00013003200f1408000a9
:101a2c00700c2000808f500006003e00504180005a
:101a3c006a005000504188001000200000408800cf
:101a4c0009003700f1408000f0182000808f500012
:101a5c0005003e0050418000650050005041880058
:101a6c001000200000408800504180008000eb00f6
:101a7c0099fd070018c0b300f23f2700c35c240097
:101a8c0091fd07000000e000010034000044eb0071
:101a9c000804e00013003200f14080000032200006
:101aac00808f500006003600504180006a004000d4
:101abc0050418800100020000040880009003700c9
:101acc00f140800080252000808f500005003600fa
:101adc0050418000650040005041880010002000fb
:101aec0000408800a095200090407800508b20008a
:101afc0001487800b095200090407800608b200061
:101b0c0001487800c095200090407800708b200030
:101b1c0001487800d095200090407800808b200000
:101b2c00014878001028ef004104800000002800d4
:101b3c00008060000000e0002b00320021952000a6
:101b4c0040ceb3009b050700209520001040780084
:101b5c000080fb00c800dd003095200010407800ac
:101b6c000080fb0000804000104188001041800084
:101b7c0080007800409520007703070040952000f6
:101b8c009040780000892000014878005095200092
:101b9c009040780010892000014878006095200062
:101bac009040780020892000014878007095200032
:101bbc009040780030892000014878008095200002
:101bcc0090407800408920000148780090952000d2
:101bdc0090407800508920000148780040ceb30036
:101bec006c05070089e0a9004d040700e283200082
:101bfc00204180007200b900000078000000410014
:101c0c0001c1b300340407004c040700e283200038
:101c1c00e04180007200b900000078000000410033
:101c2c0001c1b3002c04070012fe37000000fa00bb
:101c3c00600f200020108800002021003010880048
:101c4c0007e2a8000080fa00000006000200fa007b
:101c5c000602a8000000eb00000f7800010037001e
:101c6c001e0fe80030108000610060000000e000f2
:101c7c0004003200703e20009e007800808f5000df
:101c8c00f7ff3600703e20009e007800808f5000d9
:101c9c000200360010002000010037000000eb00ad
:101cac000080fa00000006000200fa000622a800dc
:101cbc000000eb00000f7800010037001e0fe80059
:101ccc0030108000620060000000e0000400320070
:101cdc00703e20009e007800808f5000f7ff360089
:101cec00703e20009e007800808f5000020036006d
:101cfc0010002000010037000000eb000080fa000b
:101d0c00000006000200fa000642a8000000eb00ea
:101d1c00000f7800010037001e0fe8003010800023
:101d2c00640060000000e00004003200703e2000ff
:101d3c009e007800808f5000f7ff3600703e200028
:101d4c009e007800808f50000200360010002000aa
:101d5c00010037000000eb000080fa0000000600d4
:101d6c000200fa000000eb00000f780001003700c1
:101d7c001e0fe8004110800000002400008060006d
:101d8c000000e00004003200703e20009e0078004d
:101d9c00808f5000f6ff3600703e20009e007800c9
:101dac00808f500002003600100020000100370028
:101dbc000000eb000080fa00000006000400fa00ae
:101dcc00204798002e4090000080fb0010108800e7
:101ddc000000eb00000f7800010037001e0fe80038
:101dec0040108000610060000000e0000400320040
:101dfc00703e20009e007800808f5000f7ff360068
:101e0c00703e20009e007800808f5000020036004b
:101e1c0010002000010037000000eb000080fa00e9
:101e2c00000006000400fa00100798000000eb0008
:101e3c00000f7800010037001e0fe80041108000f1
:101e4c0000002400008060000000e000040032006c
:101e5c00703e20009e007800808f5000f6ff360008
:101e6c00703e20009e007800808f500002003600eb
:101e7c001000200007003700401080004f00de00eb
:101e8c00004078008080fb001e0090000108780064
:101e9c000000eb000080fa00000006000200fa00cf
:101eac0006a2a8000682a8000000eb00000f780034
:101ebc00010037001e0fe800301080007000600039
:101ecc000000e00004003200703e20009e0078000c
:101edc00808f5000f7ff3600703e20009e00780087
:101eec00808f5000020036001000200001003700e7
:101efc000000eb000080fa00000006000200fa006f
:101f0c0006a2a9000682a8000000eb00000f7800d2
:101f1c00010037001e0fe8003010800070006000d8
:101f2c000000e00004003200703e20009e007800ab
:101f3c00808f5000f7ff3600703e20009e00780026
:101f4c00808f500002003600100020000100370086
:101f5c000000eb000080fa00000006000400fa000c
:101f6c00100798000662a8000000eb00000f780034
:101f7c00010037001e0fe800401080006200600076
:101f8c0000f0a7000000ea000000e9004f00de00ae
:101f9c008040780010c0b300723e20009e01780093
:101fac00828f5100010034000040eb0000c0600043
:101fbc000004e000efff3a00703e20009e00780025
:101fcc00808f500002003400100020000500370004
:101fdc0000108000804078001e00900001487800be
:101fec000000eb000080fa00000006000400fa007c
:101ffc00000f7800214798000f0037001e00780072
:10200c00d6ff07000000e0000200320010002000a4
:10201c00140037001e0fe8002e4090000004e00072
:10202c0005003200b5ff07000000e000020032009e
:10203c00200020000b0037002e4090000080fb0099
:10204c000000ea004f00de0000407800ae40900037
:10205c008140e900214798000004e000e7ff3a00c6
:10206c000000eb000080fa00000006000800fa00f7
:10207c002047980031479800220798006347980042
:10208c0037ff07000000e0000200320010002000c3
:10209c0041003700edfe07000000e00002003200b6
:1020ac00200020003c0037002e40900043ff07002a
:1020bc000000e00002003200300020003600370043
:1020cc000e00780057ff07000000e000020032000d
:1020dc0040002000300037003e40900037ff0700e2
:1020ec000000e00002003200300020002a0037001f
:1020fc000e0078004bff07000000e00002003200e9
:10210c004000200024003700e7fe07000000e0003c
:10211c0002003200600020001f0037002e409000ab
:10212c000004a00025ff07000000e00002003200c0
:10213c0030002000180037000e00780039ff07002f
:10214c000000e000020032004000200012003700c6
:10215c00ee4090002e009000a4ff07000000e0006d
:10216c0002003200700020000b0037004bff07000c
:10217c000000e00002003200800020000600370062
:10218c00e0fe07000000e0000200320050002000da
:10219c00010037000000eb000080fa000000060090
:1021ac000600fa00204798003147980042479800f3
:1021bc00ebfe07000000e0000200320010002000df
:1021cc002f003700a1fe07000000e00002003200e3
:1021dc00200020002a0037002e409000f7fe070058
:1021ec000000e00002003200300020002400370024
:1021fc000e0078000bff07000000e0000200320028
:10220c00400020001e0037003e409000ebfe07000f
:10221c000000e000020032003000200018003700ff
:10222c000e007800fffe07000000e0000200320004
:10223c0040002000120037004e409000dffe0700e7
:10224c000000e00002003200300020000c003700db
:10225c000e007800f3fe07000000e00002003200e0
:10226c004000200006003700a6fe07000000e0003a
:10227c000200320050002000010037000000eb008b
:10228c000080fa00000006000000fa000621ef00b2
:10229c00801320006008880081088000f0fc2f006b
:1022ac00008060000040a000800888001021a90078
:1022bc0010c1a90011e1a8000080fa00000006007e
:1022cc000000fa001221ef000a21ef00b00b2300ee
:1022dc00700888008500a9009500a90013e1a800ea
:1022ec000080fa00000006000000fa001421ef0044
:1022fc001e21a9001ec1a9001fe1a8000080fa0040
:10230c00000006000000fa002221ef0000ad2600bc
:10231c004009880061098000f0fc2f0000806000fb
:10232c000050a000600988002c21a9002cc1a90034
:10233c0099e0a90089e0a9002de1a8000080fa002d
:10234c00000006000000fa009a60a9008a60a9004b
:10235c000080fa00000006000000fa0084e0a900ea
:10236c0094e0a8000080fa00000006000000fa00cb
:10237c008760a9009760a8000080fa0000000600a2
:10238c000000fa001ea1a9001e81a800300d230038
:10239c00d00888000080fa00000006000000fa0057
:1023ac009141800040062000808f50004c003a0084
:1023bc00a04180000000e800a04188003228ef0016
:1023cc0041030700a0418000e90f500008003e00c7
:1023dc00a0418000800078002096200003010700b7
:1023ec002096200090407800d0852000014878008d
:1023fc00a0418000ea0f500039003a004203070068
:10240c00b04180000000e800b04188003428ef00a3
:10241c00a04180008000780020962000cf000700ab
:10242c002096200090407800d0852000014878004c
:10243c00b04180008000780000962000c7000700a3
:10244c000096200090407800a0852000014878007c
:10245c001096200090407800b0852000014878004c
:10246c00b1418000c0032000808f50001c003a0056
:10247c00c04180000000e800c04188003628ef0011
:10248c00b04180008000780000962000b300070067
:10249c000096200090407800a0852000014878002c
:1024ac001096200090407800b085200001487800fc
:1024bc00c041800080007800e0952000a700070054
:1024cc00e09520009040780070852000014878004d
:1024dc00f09520009040780080852000014878001d
:1024ec000080fa00000006000600fa0020079800a1
:1024fc002e0090008000eb00821a26000289b900a1
:10250c00020178006002b9008401780003014100e7
:10251c00831a26000300b8000101410082007800f4
:10252c00008fbe00008fbe003a21ef003021ef007b
:10253c008a60a900f0ff2f00010020001e01be00e0
:10254c00800f5100818f590003003e003a81a90091
:10255c003aa1a90026003700f0ff2f0071002000df
:10256c001e01be00800f5100818f590009003e00f2
:10257c003a81a8003aa1a9001e00be004d09dd0059
:10258c004300de0000007100c308de00008fbe00b7
:10259c0017003700f0ff2f00f10320001e01be00d2
:1025ac00800f5100818f590009003e003a81a9002b
:1025bc003aa1a8001e00be004a09dd004600de005c
:1025cc0000007100c608de00008fbe000800370056
:1025dc003a81a8003aa1a8001e00be004809dd00ff
:1025ec004800de0000007100c808de00008fbe004d
:1025fc001e0078000000e900b00988003be1a8004b
:10260c000000000050048000680060000000e00042
:10261c00fcff32003be1a9008a60a9000080fa00af
:10262c00000006000600fa00200798002e0090001b
:10263c008000eb007909b900020178006002b90052
:10264c008401780003014100930120000300b800cd
:10265c000101410082007800008fbe00008fbe0097
:10266c003a21ef003021ef008a60a900f0ff2f0023
:10267c00010020001e01be00800f5100818f590007
:10268c0003003e003a81a9003aa1a90026003700b8
:10269c00f0ff2f00710020001e01be00800f5100c2
:1026ac00818f590009003e003a81a8003aa1a90087
:1026bc001e00be004d09dd004300de00000071006d
:1026cc00c308de00008fbe0017003700f0ff2f009c
:1026dc00f10320001e01be00800f5100818f5900b4
:1026ec0009003e003a81a9003aa1a8001e00be00d4
:1026fc004a09dd004600de0000007100c608de005d
:10270c00008fbe00080037003a81a8003aa1a8004b
:10271c001e00be004809dd004800de00000071000c
:10272c00c808de00008fbe001e0078000000e90023
:10273c00b00988003be1a8000000000050048000b4
:10274c00680060000000e000fcff32003be1a900e3
:10275c008a60a9000080fa00000006000600fa005a
:10276c001007980021079800ae009000300620005a
:10277c00808f500001003600ffff3700ae00900044
:10278c00d0cc2c000008b8004308de00004f7800c5
:10279c001e80fb0021942000614f78001e009000e9
:1027ac001e4878001e0090000000e80010079800fa
:1027bc002e019000d0cc2c000010b8004308de0095
:1027cc006a00b9000000780000005100004f78004a
:1027dc001e80fb0021942000614f78001e009000a9
:1027ec001e4878000080fa00000006000600fa007f
:1027fc001007980021079800ae00900030062000ca
:10280c00808f500001003600ffff3700219420001c
:10281c002e00900000804000104f78001e009000a9
:10282c001e4878000080fa00000006000600fa003e
:10283c0010079800210798002e009000c300de00be
:10284c00500c22000008b8004408de00004f78004d
:10285c001e80fb0021942000614f78001e00900028
:10286c001e4878002e019000c310de00500c220090
:10287c000008b800c408de00803e20000088b900c3
:10288c000000780000005100200798002e009000f6
:10289c00c200de00b04721000008b8000100d100e2
:1028ac00004f78001e80fb0021942000614f7800bf
:1028bc001e0090000000e8001e4878002e019000d9
:1028cc00c210de00b04721000008b8008100d10022
:1028dc00400620000088b90000007800000051007c
:1028ec0020079800ae009000d0cc2c000008b80057
:1028fc004308de00004f78001e80fb00219420006e
:10290c00614f78001e0090000080e8001e4878009f
:10291c002e019000d0cc2c000010b8004308de0033
:10292c006a00b900000078000000510020079800f0
:10293c002e009000004f78001e80fb002194200098
:10294c00614f78001e009000630040001e48780024
:10295c000080fa00000006000600fa00100798003c
:10296c00210798002e0090008000eb00026a2800de
:10297c0013002000c5f90700004f78001e80fb00f3
:10298c0021942000614f78001e0090001e487800b2
:10299c002e0090008000eb00026a2800130020003b
:1029ac00cff90700200798002e009000c400de002d
:1029bc00703420000008b8004308de00004f780097
:1029cc001e80fb0021942000614f78001e009000b7
:1029dc000000e8001e487800ae009000803e200009
:1029ec0000017800110009008280d8008000fd00f1
:1029fc00200798002e009000c300de00500c22002f
:102a0c000008b8004408de00004f78001e80fb0070
:102a1c0021942000614f78001e0090000080e80097
:102a2c001e4878002e019000c310de00500c2200ce
:102a3c000008b800c408de00803e20000088b90001
:102a4c000000780000005100200798002e00900034
:102a5c00c200de00b04721000008b8000100d10020
:102a6c00004f78001e80fb0021942000614f7800fd
:102a7c001e009000630040001e4878002e0190005c
:102a8c00c210de00b04721000008b8008100d10060
:102a9c00400620000088b9000000780000005100ba
:102aac0020079800ae009000d0cc2c000008b80095
:102abc004308de00004f78001e80fb0021942000ac
:102acc00614f78001e009000640040001e487800a2
:102adc002e019000d0cc2c000010b8004308de0072
:102aec006a00b9000000780000005100200798002f
:102afc002e009000004f78001e80fb0021942000d7
:102b0c00614f78001e009000650040001e48780060
:102b1c000080fa00000006000800fa002007980068
:102b2c00310798000000eb00100798000000eb0044
:102b3c00000f7800090037001e00780000004000ec
:102b4c00ae00900000804000100078009e009000c5
:102b5c0000804000100798001e0fe8003e00900017
:102b6c009e007800808f5000f3ff35003e009000ef
:102b7c009e00900000017800110009008280d800ae
:102b8c00100798001e0090000080fa00000006005c
:102b9c000200fa00004f7800d6a2a900cbe2a900ef
:102bac00e116800000f02f0000806000e016880025
:102bbc009e00fb00e016800001007000e01688000b
:102bcc00d682a8001000200096fe0700d682a9002d
:102bdc00d6a2a8000080fa00000006000200fa004d
:102bec00004f7800d6a2a900cbe2a800e116800025
:102bfc0000f02f0000806000e01688009e00fb00b3
:102c0c00e016800001007000e0168800d682a80053
:102c1c001000200083fe0700d682a900cbe2a90099
:102c2c00d6a2a8000080fa00000006000000fa00fe
:102c3c00f00020002cfe0700e116800000f02f00b1
:102c4c0000806000e0168800d6a2a900cbe2a900a3
:102c5c00d682a900c116800000f02f000080600011
:102c6c00c0168800d2a2a900c7e2a900d282a9008e
:102c7c0080c3b300c6ff0700500020001afe0700f7
:102c8c0080c3b300c2ff07004006200065fe0700aa
:102c9c0080c3b300beff07008002200061fe070066
:102cac0080c3b300baff0700800220005dfe07005e
:102cbc00c0c0b300b6ff07008002200059fe070019
:102ccc0060c0b300b2ff07008002200055fe070071
:102cdc000080fa00000006000400fa00000f7800e3
:102cec0021479800090037001e007800104078003a
:102cfc001e0fe800b9ff07008002200049fe070004
:102d0c002e4090000040e900204798002e40900093
:102d1c000004e000f4ff3a000080fa000000060016
:102d2c000000fa0000c8b30099ff070080022000e1
:102d3c003cfe07000080fa00000006000000fa00cc
:102d4c0000ccb30092ff07008002200035fe070084
:102d5c000080fa00000006000400fa00100798003a
:102d6c001e009000010c2000010f40001e00780096
:102d7c000040780086ff07008002200029fe070033
:082d8c000080fa0000000600bf
:020000040000fa
:102d94003a0800000200000000000000f2080000f1
:102da40050000000000000000008000016000000b1
:102db40000000000260800000c00000002000000d3
:102dc400c8077500190d18004a08aa001624f40053
:102dd4003e080000b40000000200000050726f00c2
:102de40079656300746f200066696e0020445300a7
:102df400450d0a0043726f006e6f3a0020303000b8
:102e04003a3030002c302000200d0a00506f74003e
:102e1400656e3a00205858005858200020202000a1
:102e2400200d0a0054656d007065720061747500b0
:102e340072613a0020585800580d0a004469730022
:102e440074616e00636961003a2058005858580054
:102e5400580d0a004a4f59003a20200020205800fb
:102e64003a202d002d2d2d00200d0a00593a200066
:102e74002d2d2d002d205a003a202d002d2d2d0012
:102e8400200d0a0050574d003a2020002020530006
:102e9400313a580058585800200d0a0053323a006d
:102ea4005858580058205300333a5800585858007e
:102eb400200d0a0053343a00585858005820530043
:102ec400353a580058585800200d0a005e09000091
:102ed40006000000000000003208000008000000a6
:102ee4000000000042090000100000000200000081
:102ef40030313200333435003637380039000000c1
:102f04000000000000000000520900000c00000056
:102f1400000000001608000010000000000000007f
:102f24003c08000002000000020000000100000054
:042f34000000000099
:020000040000fa
:102f38000000fa003223ef00901980002019880061
:102f480020198000101988001019800000198800c5
:102f580001198000f0f12f00008060000060a000df
:102f6800001988002043a8002119800000f02100e2
:102f7800010070002019880010c0b30024e3b700d6
:102f88002203a9002623ef002823ef00411980001f
:102f980000fe2f00008060005000b3004019880038
:102fa8002e23ef003023ef000080eb00501988003b
:102fb8000080eb00601988002ca3a9002c83a900cd
:102fc8002d03a9002d23a9002d43a90085a0a90040
:102fd80095a0a80021e3a8001119800030fc2f005b
:102fe80000806000101988000080fa0000000600c8
:102ff8000000fa002023a8000080fa000000060064
:103008000000fa0000188000d04188000080fa0013
:10301800000006000000fa0070012000303a880025
:10302800213a8000f0f32f0000806000203a8800e9
:10303800213a800000fe2f0000806000203a8800be
:1030480040a7a9003200200080072000a109200025
:1030580033742000804978008149780082497800db
:103068001200200060042000710520002374200055
:103078008049780081497800824978000000000082
:10308800113a8000000027008080600000002300c3
:10309800808f5000faff3a0000000000113a8000cb
:1030a80000022000008060000000e000fbff32000a
:1030b8000080fa00000006000000fa0000f02f006f
:1030c800001688000080fa00000006000000fa00e0
:1030d800201680006100600000f0a7000000ea00f0
:1030e8000000e9004f00de00004078000080fb008f
:1030f80061006000211680000100a100010070003d
:10310800201688000080fa00000006000000fa007f
:10311800201680006200600000f0a7000000ea00ae
:103128000000e9004f00de00004078000080fb004e
:103138006100600000004000211680000110a1001d
:1031480001007000201688000080fa0000000600c8
:103158000000fa0040142000c01188003022ef005f
:103168003062a8003222ef0087c0a90087e0a900da
:1031780097c0a80097e0a8009c40a9003222a900a7
:1031880031e2a8003342a8005003200026fd0700c2
:103198000080fa00000006000200fa00004f7800e4
:1031a80012c5b3008040eb001e407800fdfb07000d
:1031b8000080fa00000006000400fa00004f7800c2
:1031c8001107980023c0b3001e01900021c0b3006e
:1031d8001e407800a6fb07000080fa0000000600e9
:1031e8000000fa008421ef00e0fd2000100c8800a8
:1031f800100c8000000c8800210c800080ff2f003c
:10320800008060006000b300200c88000080fa0095
:10321800000006000000fa006200a80061e0a800b3
:103228006260a80062e0a8006040a8009660a8005c
:0c3238008660a9000080fa00000006007b
:020000040000fa
:0200000401f009
:04000c00fbff0000f6
:020000040000fa
:0200000401f009
:040010007dff000070
:020000040000fa
:0200000401f009
:040014007fff00006a
:00000001FF
